{
  "address": "0x2a0428a6aF38045381FD6db4365aFF364153BA88",
  "abi": [
    {
      "inputs": [
        {
          "internalType": "address",
          "name": "factory",
          "type": "address"
        },
        {
          "internalType": "address",
          "name": "singleton",
          "type": "address"
        }
      ],
      "stateMutability": "nonpayable",
      "type": "constructor"
    },
    {
      "anonymous": false,
      "inputs": [
        {
          "indexed": true,
          "internalType": "address",
          "name": "previousOwner",
          "type": "address"
        },
        {
          "indexed": true,
          "internalType": "address",
          "name": "newOwner",
          "type": "address"
        }
      ],
      "name": "OwnershipTransferred",
      "type": "event"
    },
    {
      "inputs": [],
      "name": "CHALLENGE_PENALTY",
      "outputs": [
        {
          "internalType": "uint256",
          "name": "",
          "type": "uint256"
        }
      ],
      "stateMutability": "view",
      "type": "function"
    },
    {
      "inputs": [],
      "name": "CHANNEL_LIMIT",
      "outputs": [
        {
          "internalType": "uint16",
          "name": "",
          "type": "uint16"
        }
      ],
      "stateMutability": "view",
      "type": "function"
    },
    {
      "inputs": [],
      "name": "CONTEST_LIMIT",
      "outputs": [
        {
          "internalType": "uint256",
          "name": "",
          "type": "uint256"
        }
      ],
      "stateMutability": "view",
      "type": "function"
    },
    {
      "inputs": [],
      "name": "NFT_LIMIT",
      "outputs": [
        {
          "internalType": "uint48",
          "name": "",
          "type": "uint48"
        }
      ],
      "stateMutability": "view",
      "type": "function"
    },
    {
      "inputs": [],
      "name": "RECLAIM_THRESHOLD",
      "outputs": [
        {
          "internalType": "uint256",
          "name": "",
          "type": "uint256"
        }
      ],
      "stateMutability": "view",
      "type": "function"
    },
    {
      "inputs": [],
      "name": "_factory",
      "outputs": [
        {
          "internalType": "address",
          "name": "",
          "type": "address"
        }
      ],
      "stateMutability": "view",
      "type": "function"
    },
    {
      "inputs": [],
      "name": "_singleton",
      "outputs": [
        {
          "internalType": "address",
          "name": "",
          "type": "address"
        }
      ],
      "stateMutability": "view",
      "type": "function"
    },
    {
      "inputs": [
        {
          "internalType": "contract Rouge",
          "name": "rouge",
          "type": "address"
        },
        {
          "internalType": "string",
          "name": "name",
          "type": "string"
        },
        {
          "internalType": "string",
          "name": "uri",
          "type": "string"
        },
        {
          "internalType": "uint256",
          "name": "amount",
          "type": "uint256"
        },
        {
          "internalType": "uint256",
          "name": "challenge",
          "type": "uint256"
        }
      ],
      "name": "addFeature",
      "outputs": [],
      "stateMutability": "nonpayable",
      "type": "function"
    },
    {
      "inputs": [
        {
          "internalType": "contract Rouge",
          "name": "rouge",
          "type": "address"
        },
        {
          "internalType": "uint16",
          "name": "channelId",
          "type": "uint16"
        }
      ],
      "name": "claim",
      "outputs": [],
      "stateMutability": "nonpayable",
      "type": "function"
    },
    {
      "inputs": [
        {
          "internalType": "contract Rouge",
          "name": "rouge",
          "type": "address"
        },
        {
          "internalType": "uint16",
          "name": "channelId",
          "type": "uint16"
        }
      ],
      "name": "close",
      "outputs": [],
      "stateMutability": "payable",
      "type": "function"
    },
    {
      "inputs": [
        {
          "internalType": "string",
          "name": "uri",
          "type": "string"
        },
        {
          "internalType": "address payable",
          "name": "penaltiesRecipient",
          "type": "address"
        }
      ],
      "name": "createRoadmap",
      "outputs": [
        {
          "internalType": "contract RougeProxy",
          "name": "proxy",
          "type": "address"
        }
      ],
      "stateMutability": "nonpayable",
      "type": "function"
    },
    {
      "inputs": [
        {
          "internalType": "contract Rouge",
          "name": "rouge",
          "type": "address"
        }
      ],
      "name": "getInfos",
      "outputs": [
        {
          "internalType": "address",
          "name": "creator",
          "type": "address"
        },
        {
          "internalType": "string",
          "name": "uri",
          "type": "string"
        },
        {
          "components": [
            {
              "internalType": "uint48",
              "name": "supply",
              "type": "uint48"
            },
            {
              "internalType": "uint48",
              "name": "totalAcquired",
              "type": "uint48"
            },
            {
              "internalType": "uint48",
              "name": "totalRedeemed",
              "type": "uint48"
            },
            {
              "internalType": "address",
              "name": "token",
              "type": "address"
            },
            {
              "internalType": "uint256",
              "name": "amount",
              "type": "uint256"
            }
          ],
          "internalType": "struct Rouge.Channel[]",
          "name": "channels",
          "type": "tuple[]"
        },
        {
          "internalType": "address",
          "name": "penaltiesRecipient",
          "type": "address"
        },
        {
          "internalType": "bool[]",
          "name": "open",
          "type": "bool[]"
        },
        {
          "internalType": "string[]",
          "name": "names",
          "type": "string[]"
        },
        {
          "internalType": "string[]",
          "name": "featureURI",
          "type": "string[]"
        },
        {
          "internalType": "uint256[]",
          "name": "challenge",
          "type": "uint256[]"
        },
        {
          "internalType": "uint256[]",
          "name": "claimedAt",
          "type": "uint256[]"
        },
        {
          "internalType": "uint16[]",
          "name": "claimedThreshold",
          "type": "uint16[]"
        }
      ],
      "stateMutability": "view",
      "type": "function"
    },
    {
      "inputs": [],
      "name": "getRouge",
      "outputs": [
        {
          "internalType": "address",
          "name": "factory",
          "type": "address"
        },
        {
          "internalType": "address",
          "name": "singleton",
          "type": "address"
        }
      ],
      "stateMutability": "view",
      "type": "function"
    },
    {
      "inputs": [],
      "name": "owner",
      "outputs": [
        {
          "internalType": "address",
          "name": "",
          "type": "address"
        }
      ],
      "stateMutability": "view",
      "type": "function"
    },
    {
      "inputs": [
        {
          "internalType": "contract Rouge",
          "name": "rouge",
          "type": "address"
        },
        {
          "internalType": "uint16",
          "name": "channelId",
          "type": "uint16"
        },
        {
          "internalType": "uint16",
          "name": "qty",
          "type": "uint16"
        }
      ],
      "name": "pledge",
      "outputs": [],
      "stateMutability": "payable",
      "type": "function"
    },
    {
      "inputs": [],
      "name": "renounceOwnership",
      "outputs": [],
      "stateMutability": "nonpayable",
      "type": "function"
    },
    {
      "inputs": [
        {
          "internalType": "address",
          "name": "factory",
          "type": "address"
        },
        {
          "internalType": "address",
          "name": "singleton",
          "type": "address"
        }
      ],
      "name": "setRouge",
      "outputs": [],
      "stateMutability": "nonpayable",
      "type": "function"
    },
    {
      "inputs": [
        {
          "internalType": "address",
          "name": "newOwner",
          "type": "address"
        }
      ],
      "name": "transferOwnership",
      "outputs": [],
      "stateMutability": "nonpayable",
      "type": "function"
    }
  ],
  "transactionHash": "0xf1bb3670317297e47a3e0007c6c51dd7a5c1e10824df08c4ea56c4ce2fd9d836",
  "args": [
    "0xA6e904D88370D25e8Af3c6Eec7ecdD23a8d8BC83",
    "0x90713Dd7F05361317b2aBb5E5998b819099dDFaf"
  ],
  "numDeployments": 1,
  "solcInputHash": "bbc562ab54dfee492c3534eae8442e58",
  "bytecode": "0x60806040523480156200001157600080fd5b5060405162002bd938038062002bd9833981016040819052620000349162000159565b6200003f3362000053565b6200004b8282620000a3565b505062000191565b600080546001600160a01b038381166001600160a01b0319831681178455604051919092169283917f8be0079c531659141344cd1fd0a4f28419497f9722a3daafe3b4186f6b6457e09190a35050565b620000ad620000db565b600180546001600160a01b039384166001600160a01b03199182161790915560028054929093169116179055565b6000546001600160a01b031633146200013a5760405162461bcd60e51b815260206004820181905260248201527f4f776e61626c653a2063616c6c6572206973206e6f7420746865206f776e6572604482015260640160405180910390fd5b565b80516001600160a01b03811681146200015457600080fd5b919050565b600080604083850312156200016d57600080fd5b62000178836200013c565b915062000188602084016200013c565b90509250929050565b612a3880620001a16000396000f3fe6080604052600436106101295760003560e01c8063715018a6116100a5578063ce01c9fc11610074578063eadc86d111610059578063eadc86d114610327578063ecddb95f1461035d578063f2fde38b1461037257600080fd5b8063ce01c9fc146102d4578063ea99d7f11461030757600080fd5b8063715018a61461026e5780638da5cb5b14610283578063bab4c749146102a1578063c5cc6b6a146102b457600080fd5b806329e41da5116100fc5780633cf024ba116100e15780633cf024ba1461021257806346d51f5b146102255780635634f2061461024557600080fd5b806329e41da5146101c5578063361af6aa146101f257600080fd5b8063071c67591461012e5780631f834067146101565780632061afea1461018e57806325585a4c146101b0575b600080fd5b34801561013a57600080fd5b50610143600c81565b6040519081526020015b60405180910390f35b34801561016257600080fd5b50600254610176906001600160a01b031681565b6040516001600160a01b03909116815260200161014d565b34801561019a57600080fd5b506101ae6101a9366004611e55565b610392565b005b3480156101bc57600080fd5b50610143609681565b3480156101d157600080fd5b506101db60001981565b60405165ffffffffffff909116815260200161014d565b3480156101fe57600080fd5b506101ae61020d366004611ef4565b61066c565b6101ae610220366004611f29565b610990565b34801561023157600080fd5b506101ae610240366004611f6e565b610ae6565b34801561025157600080fd5b5061025b60001981565b60405161ffff909116815260200161014d565b34801561027a57600080fd5b506101ae610b34565b34801561028f57600080fd5b506000546001600160a01b0316610176565b6101ae6102af366004611ef4565b610b48565b3480156102c057600080fd5b50600154610176906001600160a01b031681565b3480156102e057600080fd5b50600154600254604080516001600160a01b0393841681529290911660208301520161014d565b34801561031357600080fd5b50610176610322366004611fa7565b611030565b34801561033357600080fd5b50610347610342366004611fee565b6112f9565b60405161014d9a999897969594939291906121c7565b34801561036957600080fd5b50610143602181565b34801561037e57600080fd5b506101ae61038d366004611fee565b611400565b6000856001600160a01b031663643d6dc06040518163ffffffff1660e01b8152600401600060405180830381865afa1580156103d2573d6000803e3d6000fd5b505050506040513d6000823e601f3d908101601f191682016040526103fa91908101906123f1565b509150506001600160a01b0386166323ec2bbe3360405160e083901b7fffffffff000000000000000000000000000000000000000000000000000000001681526001600160a01b03909116600482015263ea99d7f160e01b602482015261ffff6044820152606401602060405180830381865afa15801561047f573d6000803e3d6000fd5b505050506040513d601f19601f820116820180604052508101906104a391906124b7565b6104ac57600080fd5b604080516001808252818301909252600091816020015b6040805160a0810182526000808252602080830182905292820181905260608201819052608082015282526000199092019101816104c35750506040805160a08101825265ffffffffffff81526000602082018190529181018290526060810182905260808101879052825192935091839190610542576105426124d9565b60209081029190910101526040517f5c3731370000000000000000000000000000000000000000000000000000000081526001600160a01b03881690635c373137906105929084906004016124ef565b600060405180830381600087803b1580156105ac57600080fd5b505af11580156105c0573d6000803e3d6000fd5b505050506105d18783516001611490565b6001600160a01b0387166000908152600660209081526040808320855161ffff1684529091529020610603878261258a565b506001600160a01b0387166000908152600760209081526040808320855161ffff1684529091529020610636868261258a565b50506001600160a01b039095166000908152600860209081526040808320975161ffff1683529690529490942093909355505050565b6001600160a01b0382166323ec2bbe3360405160e083901b7fffffffff000000000000000000000000000000000000000000000000000000001681526001600160a01b03909116600482015263ea99d7f160e01b602482015261ffff6044820152606401602060405180830381865afa1580156106ed573d6000803e3d6000fd5b505050506040513d601f19601f8201168201806040525081019061071191906124b7565b6107625760405162461bcd60e51b815260206004820152600b60248201527f6e6f742063726561746f7200000000000000000000000000000000000000000060448201526064015b60405180910390fd5b6001600160a01b0382166000908152600a6020908152604080832061ffff8516845290915290205415806107db57506001600160a01b038216600081815260086020908152604080832061ffff861680855290835281842054948452600a83528184209084529091529020546107d89042612660565b10155b6108275760405162461bcd60e51b815260206004820152600d60248201527f6e6f7420636c61696d61626c65000000000000000000000000000000000000006044820152606401610759565b6001600160a01b0382166000818152600a6020908152604080832061ffff808716808652918452828520429055948452600b83528184209084529091529020541615610941576001600160a01b0382166000818152600b6020908152604080832061ffff80871680865291845282852054958552600984528285209185529252909120546064926021926108bf929181169116612673565b6108c99190612695565b6108d391906126d1565b6001600160a01b0383166000908152600b6020908152604080832061ffff80871685529252909120546109079291166126f2565b6001600160a01b03929092166000908152600b6020908152604080832061ffff94851684529091529020805461ffff191691909216179055565b6001600160a01b0391909116600081815260096020908152604080832061ffff95861680855290835281842054948452600b83528184209084529091529020805461ffff191691909216179055565b604080516001808252818301909252600091816020015b60408051608081018252600080825260208083018290529282015260608082015282526000199092019101816109a75750506040805160808101825261ffff86811682528516602080830191909152600082840181905283518181529182019093526060820152825192935091839190610a2357610a236124d9565b6020026020010181905250836001600160a01b0316637d394b5b34836040518363ffffffff1660e01b8152600401610a5b919061270d565b6000604051808303818588803b158015610a7457600080fd5b505af1158015610a88573d6000803e3d6000fd5b5050506001600160a01b038616600090815260096020908152604080832061ffff808a168552925282208054879550909350610ac6918591166126f2565b92506101000a81548161ffff021916908361ffff16021790555050505050565b610aee611606565b600180546001600160a01b039384167fffffffffffffffffffffffff00000000000000000000000000000000000000009182161790915560028054929093169116179055565b610b3c611606565b610b466000611660565b565b6001600160a01b0382166323ec2bbe3360405160e083901b7fffffffff000000000000000000000000000000000000000000000000000000001681526001600160a01b03909116600482015263ea99d7f160e01b602482015261ffff6044820152606401602060405180830381865afa158015610bc9573d6000803e3d6000fd5b505050506040513d601f19601f82011682018060405250810190610bed91906124b7565b610bf657600080fd5b6001600160a01b0382166000908152600a6020908152604080832061ffff85168452909152902054610c6a5760405162461bcd60e51b815260206004820152600b60248201527f6e6f7420636c61696d65640000000000000000000000000000000000000000006044820152606401610759565b6001600160a01b038216600081815260086020908152604080832061ffff861680855290835281842054948452600a8352818420908452909152902054610cb19042612660565b1015610cff5760405162461bcd60e51b815260206004820152600860248201527f6e6f742074696d650000000000000000000000000000000000000000000000006044820152606401610759565b6001600160a01b0382166000818152600b6020908152604080832061ffff808716808652918452828520549585526009845282852091855292528220549192610d4c929082169116612673565b6001600160a01b038416600090815260096020908152604080832061ffff8088168552925290912054919250161580610dc857506001600160a01b038316600090815260096020908152604080832061ffff8087168552925290912054600c9116610db8836064612695565b610dc291906126d1565b61ffff16105b610e145760405162461bcd60e51b815260206004820152600960248201527f636f6e74657374656400000000000000000000000000000000000000000000006044820152606401610759565b6000836001600160a01b031663643d6dc06040518163ffffffff1660e01b8152600401600060405180830381865afa158015610e54573d6000803e3d6000fd5b505050506040513d6000823e601f3d908101601f19168201604052610e7c91908101906123f1565b50915050808361ffff1681518110610e9657610e966124d9565b602002602001015160800151606460968461ffff16610eb59190612808565b610ebf919061281f565b610ec99190612808565b341015610f185760405162461bcd60e51b815260206004820152600e60248201527f70656e616c747920756e706169640000000000000000000000000000000000006044820152606401610759565b3415610f43576001600160a01b03808516600090815260056020526040902054610f439116346116c8565b6001600160a01b03841663c74b197c33838661ffff1681518110610f6957610f696124d9565b602090810291909101810151608001516001600160a01b038916600090815260098352604080822061ffff808c1684529452902054610fa89216612808565b6040517fffffffff0000000000000000000000000000000000000000000000000000000060e085901b1681526001600160a01b0390921660048301526024820152604401600060405180830381600087803b15801561100657600080fd5b505af115801561101a573d6000803e3d6000fd5b5050505061102a84846000611490565b50505050565b60006001600360008282546110459190612833565b90915550506040805160018082528183019092526000916020808301908036833701905050905060001981600081518110611082576110826124d9565b61ffff9290921660209283029190910190910152604080516001808252818301909252600091816020015b604080516080810182526000808252602080830182905260609383018490529282015282526000199092019101816110ad57905050905060405180608001604052806110f63390565b6001600160a01b0316815263ea99d7f160e01b602082015260408101849052600160609091015281518290600090611130576111306124d9565b60209081029190910101526001546002546001600160a01b0391821691631688f0b991167fdd901cae00000000000000000000000000000000000000000000000000000000308960006040519080825280602002602001820160405280156111d257816020015b6040805160a0810182526000808252602080830182905292820181905260608201819052608082015282526000199092019101816111975790505b50876040516020016111e794939291906128e4565b60408051601f19818403018152908290526112059291602001612937565b60408051601f19818403018152908290526003547fffffffff0000000000000000000000000000000000000000000000000000000060e086901b16835261124f939260040161297f565b6020604051808303816000875af115801561126e573d6000803e3d6000fd5b505050506040513d601f19601f8201168201806040525081019061129291906129b1565b9250336001600160a01b03808516600090815260046020908152604080832080549585167fffffffffffffffffffffffff00000000000000000000000000000000000000009687161790556005909152902080549187169190921617905550505b92915050565b6001600160a01b0380821660008181526004602081905260408083205481517f643d6dc0000000000000000000000000000000000000000000000000000000008152915195169460609485949385938493849384938493849363643d6dc092828101928c9291908290030181865afa158015611379573d6000803e3d6000fd5b505050506040513d6000823e601f3d908101601f191682016040526113a191908101906123f1565b506001600160a01b03808e166000908152600560205260409020548251939c50919a501697506113d2908c906117e6565b8a5192975090955093506113e7908c90611aee565b8093508194508298505050509193959799509193959799565b611408611606565b6001600160a01b0381166114845760405162461bcd60e51b815260206004820152602660248201527f4f776e61626c653a206e6577206f776e657220697320746865207a65726f206160448201527f64647265737300000000000000000000000000000000000000000000000000006064820152608401610759565b61148d81611660565b50565b6040805160018082528183019092526000916020808301908036833701905050905082816000815181106114c6576114c66124d9565b61ffff9290921660209283029190910190910152604080516001808252818301909252600091816020015b604080516080810182526000808252602080830182905260609383018490529282015282526000199092019101816114f15750506040805160808101825260008082527f7d394b5b000000000000000000000000000000000000000000000000000000006020830152918101859052851515606082015282519293509183919061157d5761157d6124d9565b60209081029190910101526040517fdf0a31370000000000000000000000000000000000000000000000000000000081526001600160a01b0386169063df0a3137906115cd9084906004016129ce565b600060405180830381600087803b1580156115e757600080fd5b505af11580156115fb573d6000803e3d6000fd5b505050505050505050565b6000546001600160a01b03163314610b465760405162461bcd60e51b815260206004820181905260248201527f4f776e61626c653a2063616c6c6572206973206e6f7420746865206f776e65726044820152606401610759565b600080546001600160a01b038381167fffffffffffffffffffffffff0000000000000000000000000000000000000000831681178455604051919092169283917f8be0079c531659141344cd1fd0a4f28419497f9722a3daafe3b4186f6b6457e09190a35050565b804710156117185760405162461bcd60e51b815260206004820152601d60248201527f416464726573733a20696e73756666696369656e742062616c616e63650000006044820152606401610759565b6000826001600160a01b03168260405160006040518083038185875af1925050503d8060008114611765576040519150601f19603f3d011682016040523d82523d6000602084013e61176a565b606091505b50509050806117e15760405162461bcd60e51b815260206004820152603a60248201527f416464726573733a20756e61626c6520746f2073656e642076616c75652c207260448201527f6563697069656e74206d617920686176652072657665727465640000000000006064820152608401610759565b505050565b606080606060008467ffffffffffffffff81111561180657611806611d67565b60405190808252806020026020018201604052801561183957816020015b60608152602001906001900390816118245790505b50905060008567ffffffffffffffff81111561185757611857611d67565b60405190808252806020026020018201604052801561188a57816020015b60608152602001906001900390816118755790505b50905060008667ffffffffffffffff8111156118a8576118a8611d67565b6040519080825280602002602001820160405280156118d1578160200160208202803683370190505b50905060005b878161ffff161015611adf576001600160a01b038916600090815260066020908152604080832061ffff851684529091529020805461191590612502565b80601f016020809104026020016040519081016040528092919081815260200182805461194190612502565b801561198e5780601f106119635761010080835404028352916020019161198e565b820191906000526020600020905b81548152906001019060200180831161197157829003601f168201915b5050505050848261ffff16815181106119a9576119a96124d9565b6020908102919091018101919091526001600160a01b038a16600090815260078252604080822061ffff851683529092522080546119e690612502565b80601f0160208091040260200160405190810160405280929190818152602001828054611a1290612502565b8015611a5f5780601f10611a3457610100808354040283529160200191611a5f565b820191906000526020600020905b815481529060010190602001808311611a4257829003601f168201915b5050505050838261ffff1681518110611a7a57611a7a6124d9565b6020908102919091018101919091526001600160a01b038a16600090815260088252604080822061ffff851680845293529020548351909184918110611ac257611ac26124d9565b602090810291909101015280611ad7816129e1565b9150506118d7565b50919450925090509250925092565b606080606060008467ffffffffffffffff811115611b0e57611b0e611d67565b604051908082528060200260200182016040528015611b37578160200160208202803683370190505b50905060008567ffffffffffffffff811115611b5557611b55611d67565b604051908082528060200260200182016040528015611b7e578160200160208202803683370190505b50905060008667ffffffffffffffff811115611b9c57611b9c611d67565b604051908082528060200260200182016040528015611bc5578160200160208202803683370190505b50905060005b878161ffff161015611adf576040517feedff2c00000000000000000000000000000000000000000000000000000000081527f7d394b5b00000000000000000000000000000000000000000000000000000000600482015261ffff821660248201526001600160a01b038a169063eedff2c090604401602060405180830381865afa158015611c5e573d6000803e3d6000fd5b505050506040513d601f19601f82011682018060405250810190611c8291906124b7565b848261ffff1681518110611c9857611c986124d9565b9115156020928302919091018201526001600160a01b038a166000908152600a8252604080822061ffff851680845293529020548451909185918110611ce057611ce06124d9565b6020908102919091018101919091526001600160a01b038a166000908152600b8252604080822061ffff8086168085529190945291205484519216918491908110611d2d57611d2d6124d9565b61ffff9092166020928302919091019091015280611d4a816129e1565b915050611bcb565b6001600160a01b038116811461148d57600080fd5b634e487b7160e01b600052604160045260246000fd5b60405160a0810167ffffffffffffffff81118282101715611da057611da0611d67565b60405290565b604051601f8201601f1916810167ffffffffffffffff81118282101715611dcf57611dcf611d67565b604052919050565b600067ffffffffffffffff821115611df157611df1611d67565b50601f01601f191660200190565b600082601f830112611e1057600080fd5b8135611e23611e1e82611dd7565b611da6565b818152846020838601011115611e3857600080fd5b816020850160208301376000918101602001919091529392505050565b600080600080600060a08688031215611e6d57600080fd5b8535611e7881611d52565b9450602086013567ffffffffffffffff80821115611e9557600080fd5b611ea189838a01611dff565b95506040880135915080821115611eb757600080fd5b50611ec488828901611dff565b9598949750949560608101359550608001359392505050565b803561ffff81168114611eef57600080fd5b919050565b60008060408385031215611f0757600080fd5b8235611f1281611d52565b9150611f2060208401611edd565b90509250929050565b600080600060608486031215611f3e57600080fd5b8335611f4981611d52565b9250611f5760208501611edd565b9150611f6560408501611edd565b90509250925092565b60008060408385031215611f8157600080fd5b8235611f8c81611d52565b91506020830135611f9c81611d52565b809150509250929050565b60008060408385031215611fba57600080fd5b823567ffffffffffffffff811115611fd157600080fd5b611fdd85828601611dff565b9250506020830135611f9c81611d52565b60006020828403121561200057600080fd5b813561200b81611d52565b9392505050565b60005b8381101561202d578181015183820152602001612015565b50506000910152565b6000815180845261204e816020860160208601612012565b601f01601f19169290920160200192915050565b600081518084526020808501945080840160005b838110156120d4578151805165ffffffffffff9081168952848201518116858a0152604080830151909116908901526060808201516001600160a01b0316908901526080908101519088015260a09096019590820190600101612076565b509495945050505050565b600081518084526020808501945080840160005b838110156120d45781511515875295820195908201906001016120f3565b6000815180845260208085019450848260051b860182860160005b85811015612156578383038952612144838351612036565b9885019892509084019060010161212c565b5090979650505050505050565b600081518084526020808501945080840160005b838110156120d457815187529582019590820190600101612177565b600081518084526020808501945080840160005b838110156120d457815161ffff16875295820195908201906001016121a7565b60006101406001600160a01b038d1683528060208401526121ea8184018d612036565b905082810360408401526121fe818c612062565b6001600160a01b038b16606085015290508281036080840152612221818a6120df565b905082810360a08401526122358189612111565b905082810360c08401526122498188612111565b905082810360e084015261225d8187612163565b90508281036101008401526122728186612163565b90508281036101208401526122878185612193565b9d9c50505050505050505050505050565b600067ffffffffffffffff8211156122b2576122b2611d67565b5060051b60200190565b805165ffffffffffff81168114611eef57600080fd5b600082601f8301126122e357600080fd5b815160206122f3611e1e83612298565b82815260a0928302850182019282820191908785111561231257600080fd5b8387015b858110156121565781818a03121561232e5760008081fd5b612336611d7d565b61233f826122bc565b815261234c8683016122bc565b86820152604061235d8184016122bc565b9082015260608281015161237081611d52565b90820152608082810151908201528452928401928101612316565b600082601f83011261239c57600080fd5b815160206123ac611e1e83612298565b82815260059290921b840181019181810190868411156123cb57600080fd5b8286015b848110156123e657805183529183019183016123cf565b509695505050505050565b60008060006060848603121561240657600080fd5b835167ffffffffffffffff8082111561241e57600080fd5b818601915086601f83011261243257600080fd5b8151612440611e1e82611dd7565b81815288602083860101111561245557600080fd5b612466826020830160208701612012565b60208801519096509250508082111561247e57600080fd5b61248a878388016122d2565b935060408601519150808211156124a057600080fd5b506124ad8682870161238b565b9150509250925092565b6000602082840312156124c957600080fd5b8151801515811461200b57600080fd5b634e487b7160e01b600052603260045260246000fd5b60208152600061200b6020830184612062565b600181811c9082168061251657607f821691505b60208210810361253657634e487b7160e01b600052602260045260246000fd5b50919050565b601f8211156117e157600081815260208120601f850160051c810160208610156125635750805b601f850160051c820191505b818110156125825782815560010161256f565b505050505050565b815167ffffffffffffffff8111156125a4576125a4611d67565b6125b8816125b28454612502565b8461253c565b602080601f8311600181146125ed57600084156125d55750858301515b600019600386901b1c1916600185901b178555612582565b600085815260208120601f198616915b8281101561261c578886015182559484019460019091019084016125fd565b508582101561263a5787850151600019600388901b60f8161c191681555b5050505050600190811b01905550565b634e487b7160e01b600052601160045260246000fd5b818103818111156112f3576112f361264a565b61ffff82811682821603908082111561268e5761268e61264a565b5092915050565b61ffff8181168382160280821691908281146126b3576126b361264a565b505092915050565b634e487b7160e01b600052601260045260246000fd5b600061ffff808416806126e6576126e66126bb565b92169190910492915050565b61ffff81811683821601908082111561268e5761268e61264a565b60006020808301818452808551808352604092508286019150828160051b8701018488016000805b848110156127f9578984037fffffffffffffffffffffffffffffffffffffffffffffffffffffffffffffffc00186528251805161ffff908116865289820151168986015287810151888601526060908101516080918601829052805191860182905289019060a086019084905b808210156127e45783517fffffffffffffffffffffffffffffffff00000000000000000000000000000000168352928b0192918b0191600191909101906127a2565b50509689019694505091870191600101612735565b50919998505050505050505050565b80820281158282048414176112f3576112f361264a565b60008261282e5761282e6126bb565b500490565b808201808211156112f3576112f361264a565b6000815180845260208085019450848260051b860182860160005b85811015612156578383038952815160806001600160a01b0382511685527fffffffff0000000000000000000000000000000000000000000000000000000087830151168786015260408083015182828801526128c083880182612193565b60609485015115159790940196909652505098850198925090840190600101612861565b6001600160a01b03851681526080602082015260006129066080830186612036565b82810360408401526129188186612062565b9050828103606084015261292c8185612846565b979650505050505050565b7fffffffff000000000000000000000000000000000000000000000000000000008316815260008251612971816004850160208701612012565b919091016004019392505050565b6001600160a01b03841681526060602082015260006129a16060830185612036565b9050826040830152949350505050565b6000602082840312156129c357600080fd5b815161200b81611d52565b60208152600061200b6020830184612846565b600061ffff8083168181036129f8576129f861264a565b600101939250505056fea2646970667358221220d6582c11b2a57ccedb95df440786326bb007e97f525c6381749c56eb98b112bb64736f6c63430008120033",
  "devdoc": {
    "kind": "dev",
    "methods": {
      "owner()": {
        "details": "Returns the address of the current owner."
      },
      "renounceOwnership()": {
        "details": "Leaves the contract without owner. It will not be possible to call `onlyOwner` functions anymore. Can only be called by the current owner. NOTE: Renouncing ownership will leave the contract without an owner, thereby removing any functionality that is only available to the owner."
      },
      "transferOwnership(address)": {
        "details": "Transfers ownership of the contract to a new account (`newOwner`). Can only be called by the current owner."
      }
    },
    "version": 1
  },
  "userdoc": {
    "kind": "user",
    "methods": {},
    "version": 1
  },
  "storageLayout": {
    "storage": [
      {
        "astId": 7,
        "contract": "contracts/Roadfund.sol:Roadfund",
        "label": "_owner",
        "offset": 0,
        "slot": "0",
        "type": "t_address"
      },
      {
        "astId": 4901,
        "contract": "contracts/Roadfund.sol:Roadfund",
        "label": "_factory",
        "offset": 0,
        "slot": "1",
        "type": "t_address"
      },
      {
        "astId": 4903,
        "contract": "contracts/Roadfund.sol:Roadfund",
        "label": "_singleton",
        "offset": 0,
        "slot": "2",
        "type": "t_address"
      },
      {
        "astId": 4975,
        "contract": "contracts/Roadfund.sol:Roadfund",
        "label": "_nonce",
        "offset": 0,
        "slot": "3",
        "type": "t_uint256"
      },
      {
        "astId": 4980,
        "contract": "contracts/Roadfund.sol:Roadfund",
        "label": "_creator",
        "offset": 0,
        "slot": "4",
        "type": "t_mapping(t_contract(Rouge)4337,t_address_payable)"
      },
      {
        "astId": 4985,
        "contract": "contracts/Roadfund.sol:Roadfund",
        "label": "_penaltiesRecipient",
        "offset": 0,
        "slot": "5",
        "type": "t_mapping(t_contract(Rouge)4337,t_address_payable)"
      },
      {
        "astId": 5175,
        "contract": "contracts/Roadfund.sol:Roadfund",
        "label": "_featureName",
        "offset": 0,
        "slot": "6",
        "type": "t_mapping(t_contract(Rouge)4337,t_mapping(t_uint16,t_string_storage))"
      },
      {
        "astId": 5182,
        "contract": "contracts/Roadfund.sol:Roadfund",
        "label": "_featureURI",
        "offset": 0,
        "slot": "7",
        "type": "t_mapping(t_contract(Rouge)4337,t_mapping(t_uint16,t_string_storage))"
      },
      {
        "astId": 5189,
        "contract": "contracts/Roadfund.sol:Roadfund",
        "label": "_featureChallengeDuration",
        "offset": 0,
        "slot": "8",
        "type": "t_mapping(t_contract(Rouge)4337,t_mapping(t_uint16,t_uint256))"
      },
      {
        "astId": 5314,
        "contract": "contracts/Roadfund.sol:Roadfund",
        "label": "_pledges",
        "offset": 0,
        "slot": "9",
        "type": "t_mapping(t_contract(Rouge)4337,t_mapping(t_uint16,t_uint16))"
      },
      {
        "astId": 5378,
        "contract": "contracts/Roadfund.sol:Roadfund",
        "label": "_claimedAt",
        "offset": 0,
        "slot": "10",
        "type": "t_mapping(t_contract(Rouge)4337,t_mapping(t_uint16,t_uint256))"
      },
      {
        "astId": 5385,
        "contract": "contracts/Roadfund.sol:Roadfund",
        "label": "_claimedThreshold",
        "offset": 0,
        "slot": "11",
        "type": "t_mapping(t_contract(Rouge)4337,t_mapping(t_uint16,t_uint16))"
      }
    ],
    "types": {
      "t_address": {
        "encoding": "inplace",
        "label": "address",
        "numberOfBytes": "20"
      },
      "t_address_payable": {
        "encoding": "inplace",
        "label": "address payable",
        "numberOfBytes": "20"
      },
      "t_contract(Rouge)4337": {
        "encoding": "inplace",
        "label": "contract Rouge",
        "numberOfBytes": "20"
      },
      "t_mapping(t_contract(Rouge)4337,t_address_payable)": {
        "encoding": "mapping",
        "key": "t_contract(Rouge)4337",
        "label": "mapping(contract Rouge => address payable)",
        "numberOfBytes": "32",
        "value": "t_address_payable"
      },
      "t_mapping(t_contract(Rouge)4337,t_mapping(t_uint16,t_string_storage))": {
        "encoding": "mapping",
        "key": "t_contract(Rouge)4337",
        "label": "mapping(contract Rouge => mapping(uint16 => string))",
        "numberOfBytes": "32",
        "value": "t_mapping(t_uint16,t_string_storage)"
      },
      "t_mapping(t_contract(Rouge)4337,t_mapping(t_uint16,t_uint16))": {
        "encoding": "mapping",
        "key": "t_contract(Rouge)4337",
        "label": "mapping(contract Rouge => mapping(uint16 => uint16))",
        "numberOfBytes": "32",
        "value": "t_mapping(t_uint16,t_uint16)"
      },
      "t_mapping(t_contract(Rouge)4337,t_mapping(t_uint16,t_uint256))": {
        "encoding": "mapping",
        "key": "t_contract(Rouge)4337",
        "label": "mapping(contract Rouge => mapping(uint16 => uint256))",
        "numberOfBytes": "32",
        "value": "t_mapping(t_uint16,t_uint256)"
      },
      "t_mapping(t_uint16,t_string_storage)": {
        "encoding": "mapping",
        "key": "t_uint16",
        "label": "mapping(uint16 => string)",
        "numberOfBytes": "32",
        "value": "t_string_storage"
      },
      "t_mapping(t_uint16,t_uint16)": {
        "encoding": "mapping",
        "key": "t_uint16",
        "label": "mapping(uint16 => uint16)",
        "numberOfBytes": "32",
        "value": "t_uint16"
      },
      "t_mapping(t_uint16,t_uint256)": {
        "encoding": "mapping",
        "key": "t_uint16",
        "label": "mapping(uint16 => uint256)",
        "numberOfBytes": "32",
        "value": "t_uint256"
      },
      "t_string_storage": {
        "encoding": "bytes",
        "label": "string",
        "numberOfBytes": "32"
      },
      "t_uint16": {
        "encoding": "inplace",
        "label": "uint16",
        "numberOfBytes": "2"
      },
      "t_uint256": {
        "encoding": "inplace",
        "label": "uint256",
        "numberOfBytes": "32"
      }
    }
  }
}